{
    "_format": "hh-sol-artifact-1",
    "contractName": "BymaxPay",
    "sourceName": "contracts/BymaxPay.sol",
    "abi": [
        {
            "inputs": [
                {
                    "internalType": "address",
                    "name": "tokenAddress",
                    "type": "address"
                }
            ],
            "stateMutability": "nonpayable",
            "type": "constructor"
        },
        {
            "inputs": [
                {
                    "internalType": "address",
                    "name": "target",
                    "type": "address"
                }
            ],
            "name": "AddressEmptyCode",
            "type": "error"
        },
        {
            "inputs": [
                {
                    "internalType": "address",
                    "name": "account",
                    "type": "address"
                }
            ],
            "name": "AddressInsufficientBalance",
            "type": "error"
        },
        {
            "inputs": [],
            "name": "FailedInnerCall",
            "type": "error"
        },
        {
            "inputs": [
                {
                    "internalType": "address",
                    "name": "owner",
                    "type": "address"
                }
            ],
            "name": "OwnableInvalidOwner",
            "type": "error"
        },
        {
            "inputs": [
                {
                    "internalType": "address",
                    "name": "account",
                    "type": "address"
                }
            ],
            "name": "OwnableUnauthorizedAccount",
            "type": "error"
        },
        {
            "inputs": [],
            "name": "ReentrancyGuardReentrantCall",
            "type": "error"
        },
        {
            "inputs": [
                {
                    "internalType": "address",
                    "name": "token",
                    "type": "address"
                }
            ],
            "name": "SafeERC20FailedOperation",
            "type": "error"
        },
        {
            "anonymous": false,
            "inputs": [
                {
                    "indexed": false,
                    "internalType": "address",
                    "name": "contractor",
                    "type": "address"
                }
            ],
            "name": "ContractorRemoved",
            "type": "event"
        },
        {
            "anonymous": false,
            "inputs": [
                {
                    "indexed": false,
                    "internalType": "uint256",
                    "name": "feeAmount",
                    "type": "uint256"
                }
            ],
            "name": "FeeAccumulated",
            "type": "event"
        },
        {
            "anonymous": false,
            "inputs": [
                {
                    "indexed": false,
                    "internalType": "uint256",
                    "name": "newFee",
                    "type": "uint256"
                }
            ],
            "name": "FeePercentageUpdated",
            "type": "event"
        },
        {
            "anonymous": false,
            "inputs": [
                {
                    "indexed": true,
                    "internalType": "address",
                    "name": "customer",
                    "type": "address"
                },
                {
                    "indexed": true,
                    "internalType": "address",
                    "name": "contractor",
                    "type": "address"
                },
                {
                    "indexed": false,
                    "internalType": "uint256",
                    "name": "tokenId",
                    "type": "uint256"
                },
                {
                    "indexed": false,
                    "internalType": "uint256",
                    "name": "date",
                    "type": "uint256"
                }
            ],
            "name": "Granted",
            "type": "event"
        },
        {
            "anonymous": false,
            "inputs": [
                {
                    "indexed": true,
                    "internalType": "address",
                    "name": "previousOwner",
                    "type": "address"
                },
                {
                    "indexed": true,
                    "internalType": "address",
                    "name": "newOwner",
                    "type": "address"
                }
            ],
            "name": "OwnershipTransferred",
            "type": "event"
        },
        {
            "anonymous": false,
            "inputs": [
                {
                    "indexed": true,
                    "internalType": "address",
                    "name": "customer",
                    "type": "address"
                },
                {
                    "indexed": true,
                    "internalType": "address",
                    "name": "contractor",
                    "type": "address"
                },
                {
                    "indexed": false,
                    "internalType": "uint256",
                    "name": "date",
                    "type": "uint256"
                },
                {
                    "indexed": false,
                    "internalType": "uint256",
                    "name": "amount",
                    "type": "uint256"
                },
                {
                    "indexed": false,
                    "internalType": "uint256",
                    "name": "duration",
                    "type": "uint256"
                }
            ],
            "name": "Paid",
            "type": "event"
        },
        {
            "anonymous": false,
            "inputs": [
                {
                    "indexed": true,
                    "internalType": "address",
                    "name": "customer",
                    "type": "address"
                },
                {
                    "indexed": true,
                    "internalType": "address",
                    "name": "contractor",
                    "type": "address"
                },
                {
                    "indexed": false,
                    "internalType": "uint256",
                    "name": "tokenId",
                    "type": "uint256"
                },
                {
                    "indexed": false,
                    "internalType": "uint256",
                    "name": "date",
                    "type": "uint256"
                }
            ],
            "name": "Removed",
            "type": "event"
        },
        {
            "anonymous": false,
            "inputs": [
                {
                    "indexed": true,
                    "internalType": "address",
                    "name": "customer",
                    "type": "address"
                },
                {
                    "indexed": true,
                    "internalType": "address",
                    "name": "contractor",
                    "type": "address"
                },
                {
                    "indexed": false,
                    "internalType": "uint256",
                    "name": "tokenId",
                    "type": "uint256"
                },
                {
                    "indexed": false,
                    "internalType": "uint256",
                    "name": "date",
                    "type": "uint256"
                }
            ],
            "name": "Revoked",
            "type": "event"
        },
        {
            "anonymous": false,
            "inputs": [
                {
                    "indexed": false,
                    "internalType": "uint256",
                    "name": "amount",
                    "type": "uint256"
                },
                {
                    "indexed": false,
                    "internalType": "address",
                    "name": "contractor",
                    "type": "address"
                }
            ],
            "name": "WithdrawnContractorBalance",
            "type": "event"
        },
        {
            "anonymous": false,
            "inputs": [
                {
                    "indexed": false,
                    "internalType": "uint256",
                    "name": "amount",
                    "type": "uint256"
                },
                {
                    "indexed": false,
                    "internalType": "address",
                    "name": "recipient",
                    "type": "address"
                }
            ],
            "name": "WithdrawnFees",
            "type": "event"
        },
        {
            "inputs": [],
            "name": "acceptedToken",
            "outputs": [
                {
                    "internalType": "contract IERC20",
                    "name": "",
                    "type": "address"
                }
            ],
            "stateMutability": "view",
            "type": "function"
        },
        {
            "inputs": [],
            "name": "accumulatedFees",
            "outputs": [
                {
                    "internalType": "uint256",
                    "name": "",
                    "type": "uint256"
                }
            ],
            "stateMutability": "view",
            "type": "function"
        },
        {
            "inputs": [
                {
                    "internalType": "address",
                    "name": "contractor",
                    "type": "address"
                },
                {
                    "internalType": "address",
                    "name": "nftCollection",
                    "type": "address"
                }
            ],
            "name": "addContractor",
            "outputs": [],
            "stateMutability": "nonpayable",
            "type": "function"
        },
        {
            "inputs": [
                {
                    "internalType": "uint256",
                    "name": "",
                    "type": "uint256"
                }
            ],
            "name": "contractors",
            "outputs": [
                {
                    "internalType": "address",
                    "name": "",
                    "type": "address"
                }
            ],
            "stateMutability": "view",
            "type": "function"
        },
        {
            "inputs": [
                {
                    "internalType": "address",
                    "name": "",
                    "type": "address"
                }
            ],
            "name": "contractorsData",
            "outputs": [
                {
                    "internalType": "address",
                    "name": "nftCollection",
                    "type": "address"
                },
                {
                    "internalType": "uint256",
                    "name": "balance",
                    "type": "uint256"
                }
            ],
            "stateMutability": "view",
            "type": "function"
        },
        {
            "inputs": [
                {
                    "internalType": "address",
                    "name": "",
                    "type": "address"
                },
                {
                    "internalType": "address",
                    "name": "",
                    "type": "address"
                }
            ],
            "name": "customerPayments",
            "outputs": [
                {
                    "internalType": "uint256",
                    "name": "tokenId",
                    "type": "uint256"
                },
                {
                    "internalType": "uint256",
                    "name": "nextPayment",
                    "type": "uint256"
                },
                {
                    "internalType": "uint256",
                    "name": "duration",
                    "type": "uint256"
                }
            ],
            "stateMutability": "view",
            "type": "function"
        },
        {
            "inputs": [
                {
                    "internalType": "uint256",
                    "name": "",
                    "type": "uint256"
                }
            ],
            "name": "customers",
            "outputs": [
                {
                    "internalType": "address",
                    "name": "",
                    "type": "address"
                }
            ],
            "stateMutability": "view",
            "type": "function"
        },
        {
            "inputs": [],
            "name": "feePercentage",
            "outputs": [
                {
                    "internalType": "uint256",
                    "name": "",
                    "type": "uint256"
                }
            ],
            "stateMutability": "view",
            "type": "function"
        },
        {
            "inputs": [],
            "name": "getContractorBalance",
            "outputs": [
                {
                    "internalType": "uint256",
                    "name": "",
                    "type": "uint256"
                }
            ],
            "stateMutability": "view",
            "type": "function"
        },
        {
            "inputs": [],
            "name": "getContractorNFTCollection",
            "outputs": [
                {
                    "internalType": "address",
                    "name": "",
                    "type": "address"
                }
            ],
            "stateMutability": "view",
            "type": "function"
        },
        {
            "inputs": [
                {
                    "internalType": "uint256",
                    "name": "limit",
                    "type": "uint256"
                },
                {
                    "internalType": "uint256",
                    "name": "skip",
                    "type": "uint256"
                }
            ],
            "name": "getContractors",
            "outputs": [
                {
                    "internalType": "address[]",
                    "name": "",
                    "type": "address[]"
                },
                {
                    "internalType": "uint256[]",
                    "name": "",
                    "type": "uint256[]"
                },
                {
                    "internalType": "address[]",
                    "name": "",
                    "type": "address[]"
                }
            ],
            "stateMutability": "view",
            "type": "function"
        },
        {
            "inputs": [
                {
                    "internalType": "address",
                    "name": "customer",
                    "type": "address"
                }
            ],
            "name": "getCustomer",
            "outputs": [
                {
                    "components": [
                        {
                            "internalType": "uint256",
                            "name": "tokenId",
                            "type": "uint256"
                        },
                        {
                            "internalType": "uint256",
                            "name": "nextPayment",
                            "type": "uint256"
                        },
                        {
                            "internalType": "uint256",
                            "name": "duration",
                            "type": "uint256"
                        }
                    ],
                    "internalType": "struct BymaxPay.Customer[]",
                    "name": "",
                    "type": "tuple[]"
                }
            ],
            "stateMutability": "view",
            "type": "function"
        },
        {
            "inputs": [
                {
                    "internalType": "address",
                    "name": "customer",
                    "type": "address"
                },
                {
                    "internalType": "address",
                    "name": "contractor",
                    "type": "address"
                }
            ],
            "name": "getCustomerDetails",
            "outputs": [
                {
                    "components": [
                        {
                            "internalType": "uint256",
                            "name": "tokenId",
                            "type": "uint256"
                        },
                        {
                            "internalType": "uint256",
                            "name": "nextPayment",
                            "type": "uint256"
                        },
                        {
                            "internalType": "uint256",
                            "name": "duration",
                            "type": "uint256"
                        }
                    ],
                    "internalType": "struct BymaxPay.Customer",
                    "name": "",
                    "type": "tuple"
                }
            ],
            "stateMutability": "view",
            "type": "function"
        },
        {
            "inputs": [
                {
                    "internalType": "uint256",
                    "name": "limit",
                    "type": "uint256"
                },
                {
                    "internalType": "uint256",
                    "name": "skip",
                    "type": "uint256"
                }
            ],
            "name": "getCustomers",
            "outputs": [
                {
                    "internalType": "address[]",
                    "name": "",
                    "type": "address[]"
                },
                {
                    "components": [
                        {
                            "internalType": "uint256",
                            "name": "tokenId",
                            "type": "uint256"
                        },
                        {
                            "internalType": "uint256",
                            "name": "nextPayment",
                            "type": "uint256"
                        },
                        {
                            "internalType": "uint256",
                            "name": "duration",
                            "type": "uint256"
                        }
                    ],
                    "internalType": "struct BymaxPay.Customer[][]",
                    "name": "",
                    "type": "tuple[][]"
                }
            ],
            "stateMutability": "view",
            "type": "function"
        },
        {
            "inputs": [],
            "name": "getTotalContractors",
            "outputs": [
                {
                    "internalType": "uint256",
                    "name": "",
                    "type": "uint256"
                }
            ],
            "stateMutability": "view",
            "type": "function"
        },
        {
            "inputs": [],
            "name": "getTotalCustomers",
            "outputs": [
                {
                    "internalType": "uint256",
                    "name": "",
                    "type": "uint256"
                }
            ],
            "stateMutability": "view",
            "type": "function"
        },
        {
            "inputs": [
                {
                    "internalType": "address",
                    "name": "",
                    "type": "address"
                },
                {
                    "internalType": "address",
                    "name": "",
                    "type": "address"
                },
                {
                    "internalType": "uint256",
                    "name": "",
                    "type": "uint256"
                },
                {
                    "internalType": "bytes",
                    "name": "",
                    "type": "bytes"
                }
            ],
            "name": "onERC721Received",
            "outputs": [
                {
                    "internalType": "bytes4",
                    "name": "",
                    "type": "bytes4"
                }
            ],
            "stateMutability": "nonpayable",
            "type": "function"
        },
        {
            "inputs": [],
            "name": "owner",
            "outputs": [
                {
                    "internalType": "address",
                    "name": "",
                    "type": "address"
                }
            ],
            "stateMutability": "view",
            "type": "function"
        },
        {
            "inputs": [
                {
                    "internalType": "address",
                    "name": "customer",
                    "type": "address"
                },
                {
                    "internalType": "address",
                    "name": "contractor",
                    "type": "address"
                },
                {
                    "internalType": "uint256",
                    "name": "amount",
                    "type": "uint256"
                },
                {
                    "internalType": "uint256",
                    "name": "duration",
                    "type": "uint256"
                }
            ],
            "name": "pay",
            "outputs": [],
            "stateMutability": "nonpayable",
            "type": "function"
        },
        {
            "inputs": [
                {
                    "internalType": "address",
                    "name": "contractor",
                    "type": "address"
                }
            ],
            "name": "removeContractor",
            "outputs": [],
            "stateMutability": "nonpayable",
            "type": "function"
        },
        {
            "inputs": [
                {
                    "internalType": "address",
                    "name": "customer",
                    "type": "address"
                }
            ],
            "name": "removeCustomer",
            "outputs": [],
            "stateMutability": "nonpayable",
            "type": "function"
        },
        {
            "inputs": [],
            "name": "renounceOwnership",
            "outputs": [],
            "stateMutability": "nonpayable",
            "type": "function"
        },
        {
            "inputs": [
                {
                    "internalType": "uint256",
                    "name": "newFee",
                    "type": "uint256"
                }
            ],
            "name": "setFeePercentage",
            "outputs": [],
            "stateMutability": "nonpayable",
            "type": "function"
        },
        {
            "inputs": [
                {
                    "internalType": "address",
                    "name": "newOwner",
                    "type": "address"
                }
            ],
            "name": "transferOwnership",
            "outputs": [],
            "stateMutability": "nonpayable",
            "type": "function"
        },
        {
            "inputs": [],
            "name": "withdrawContractorBalance",
            "outputs": [],
            "stateMutability": "nonpayable",
            "type": "function"
        },
        {
            "inputs": [],
            "name": "withdrawFees",
            "outputs": [],
            "stateMutability": "nonpayable",
            "type": "function"
        }
    ],
    "bytecode": "0x60806040526101f46003553480156200001757600080fd5b5060405162004ae638038062004ae683398181016040528101906200003d919062000242565b33600073ffffffffffffffffffffffffffffffffffffffff168173ffffffffffffffffffffffffffffffffffffffff1603620000b35760006040517f1e4fbdf7000000000000000000000000000000000000000000000000000000008152600401620000aa919062000285565b60405180910390fd5b620000c4816200011460201b60201c565b506001808190555080600260006101000a81548173ffffffffffffffffffffffffffffffffffffffff021916908373ffffffffffffffffffffffffffffffffffffffff16021790555050620002a2565b60008060009054906101000a900473ffffffffffffffffffffffffffffffffffffffff169050816000806101000a81548173ffffffffffffffffffffffffffffffffffffffff021916908373ffffffffffffffffffffffffffffffffffffffff1602179055508173ffffffffffffffffffffffffffffffffffffffff168173ffffffffffffffffffffffffffffffffffffffff167f8be0079c531659141344cd1fd0a4f28419497f9722a3daafe3b4186f6b6457e060405160405180910390a35050565b600080fd5b600073ffffffffffffffffffffffffffffffffffffffff82169050919050565b60006200020a82620001dd565b9050919050565b6200021c81620001fd565b81146200022857600080fd5b50565b6000815190506200023c8162000211565b92915050565b6000602082840312156200025b576200025a620001d8565b5b60006200026b848285016200022b565b91505092915050565b6200027f81620001fd565b82525050565b60006020820190506200029c600083018462000274565b92915050565b61483480620002b26000396000f3fe608060405234801561001057600080fd5b506004361061018e5760003560e01c806389cbe211116100de578063bd2b949d11610097578063cb949e5111610071578063cb949e511461048d578063dd9a76ff146104bd578063f2fde38b146104d9578063f4fe959c146104f55761018e565b8063bd2b949d1461040d578063c0abda2a1461042b578063c77341ea1461045b5761018e565b806389cbe2111461035d5780638da5cb5b1461037b5780638eb06ccf146103995780639f1abd11146103b5578063a001ecdd146103d3578063ae06c1b7146103f15761018e565b8063452076491161014b5780636721ed43116101255780636721ed43146102c0578063715018a6146102f257806372685ff3146102fc578063883e8bd21461032d5761018e565b8063452076491461027c578063476343ee14610298578063587f5ed7146102a25761018e565b80630e44e7b114610193578063150b7a02146101af57806326540348146101df5780633481a95a14610210578063451c3d8014610240578063451efd931461025e575b600080fd5b6101ad60048036038101906101a89190613313565b6104ff565b005b6101c960048036038101906101c491906134bc565b6109ae565b6040516101d6919061357a565b60405180910390f35b6101f960048036038101906101f49190613595565b6109c2565b604051610207929190613855565b60405180910390f35b61022a6004803603810190610225919061388c565b610d50565b60405161023791906138c8565b60405180910390f35b610248610d8f565b6040516102559190613942565b60405180910390f35b610266610db5565b604051610273919061396c565b60405180910390f35b61029660048036038101906102919190613987565b610dc2565b005b6102a06110a7565b005b6102aa6111a8565b6040516102b7919061396c565b60405180910390f35b6102da60048036038101906102d59190613987565b6111ae565b6040516102e9939291906139c7565b60405180910390f35b6102fa6111e5565b005b61031660048036038101906103119190613313565b6111f9565b6040516103249291906139fe565b60405180910390f35b61034760048036038101906103429190613987565b61123d565b6040516103549190613a69565b60405180910390f35b6103656112f2565b604051610372919061396c565b60405180910390f35b61038361133c565b60405161039091906138c8565b60405180910390f35b6103b360048036038101906103ae9190613313565b611365565b005b6103bd6118f3565b6040516103ca919061396c565b60405180910390f35b6103db611900565b6040516103e8919061396c565b60405180910390f35b61040b6004803603810190610406919061388c565b611906565b005b610415611994565b60405161042291906138c8565b60405180910390f35b6104456004803603810190610440919061388c565b6119fe565b60405161045291906138c8565b60405180910390f35b61047560048036038101906104709190613595565b611a3d565b60405161048493929190613b33565b60405180910390f35b6104a760048036038101906104a29190613313565b611e28565b6040516104b49190613bee565b60405180910390f35b6104d760048036038101906104d29190613c10565b611fb6565b005b6104f360048036038101906104ee9190613313565b612b9e565b005b6104fd612c24565b005b610507612d8f565b600073ffffffffffffffffffffffffffffffffffffffff168173ffffffffffffffffffffffffffffffffffffffff1603610576576040517f08c379a000000000000000000000000000000000000000000000000000000000815260040161056d90613cd4565b60405180910390fd5b6000600660008373ffffffffffffffffffffffffffffffffffffffff1673ffffffffffffffffffffffffffffffffffffffff16815260200190815260200160002060010154146105fb576040517f08c379a00000000000000000000000000000000000000000000000000000000081526004016105f290613d40565b60405180910390fd5b60005b600780549050811015610781578173ffffffffffffffffffffffffffffffffffffffff166007828154811061063657610635613d60565b5b9060005260206000200160009054906101000a900473ffffffffffffffffffffffffffffffffffffffff1673ffffffffffffffffffffffffffffffffffffffff160361077457600760016007805490506106909190613dbe565b815481106106a1576106a0613d60565b5b9060005260206000200160009054906101000a900473ffffffffffffffffffffffffffffffffffffffff16600782815481106106e0576106df613d60565b5b9060005260206000200160006101000a81548173ffffffffffffffffffffffffffffffffffffffff021916908373ffffffffffffffffffffffffffffffffffffffff160217905550600780548061073a57610739613df2565b5b6001900381819060005260206000200160006101000a81549073ffffffffffffffffffffffffffffffffffffffff02191690559055610781565b80806001019150506105fe565b5060005b600880549050811015610902576000600882815481106107a8576107a7613d60565b5b9060005260206000200160009054906101000a900473ffffffffffffffffffffffffffffffffffffffff1690506000600560008373ffffffffffffffffffffffffffffffffffffffff1673ffffffffffffffffffffffffffffffffffffffff16815260200190815260200160002060008573ffffffffffffffffffffffffffffffffffffffff1673ffffffffffffffffffffffffffffffffffffffff16815260200190815260200160002060010154146108f457600560008273ffffffffffffffffffffffffffffffffffffffff1673ffffffffffffffffffffffffffffffffffffffff16815260200190815260200160002060008473ffffffffffffffffffffffffffffffffffffffff1673ffffffffffffffffffffffffffffffffffffffff1681526020019081526020016000206000808201600090556001820160009055600282016000905550505b508080600101915050610785565b50600660008273ffffffffffffffffffffffffffffffffffffffff1673ffffffffffffffffffffffffffffffffffffffff168152602001908152602001600020600080820160006101000a81549073ffffffffffffffffffffffffffffffffffffffff0219169055600182016000905550507f859b2bfbdec155ba48a3e02a62b5f3cefa9be0b605c13e391639dce0295d2985816040516109a391906138c8565b60405180910390a150565b600063150b7a0260e01b9050949350505050565b6060806109cd612d8f565b600880549050831115610a15576040517f08c379a0000000000000000000000000000000000000000000000000000000008152600401610a0c90613e6d565b60405180910390fd5b60006008805490508585610a299190613e8d565b11610a345784610a46565b83600880549050610a459190613dbe565b5b905060008167ffffffffffffffff811115610a6457610a63613391565b5b604051908082528060200260200182016040528015610a925781602001602082028036833780820191505090505b50905060008267ffffffffffffffff811115610ab157610ab0613391565b5b604051908082528060200260200182016040528015610ae457816020015b6060815260200190600190039081610acf5790505b50905060005b83811015610d3f57600060088289610b029190613e8d565b81548110610b1357610b12613d60565b5b9060005260206000200160009054906101000a900473ffffffffffffffffffffffffffffffffffffffff1690506000600780549050905060008167ffffffffffffffff811115610b6657610b65613391565b5b604051908082528060200260200182016040528015610b9f57816020015b610b8c613280565b815260200190600190039081610b845790505b50905060005b82811015610cc157600060078281548110610bc357610bc2613d60565b5b9060005260206000200160009054906101000a900473ffffffffffffffffffffffffffffffffffffffff169050600560008673ffffffffffffffffffffffffffffffffffffffff1673ffffffffffffffffffffffffffffffffffffffff16815260200190815260200160002060008273ffffffffffffffffffffffffffffffffffffffff1673ffffffffffffffffffffffffffffffffffffffff1681526020019081526020016000206040518060600160405290816000820154815260200160018201548152602001600282015481525050838381518110610ca857610ca7613d60565b5b6020026020010181905250508080600101915050610ba5565b5082868581518110610cd657610cd5613d60565b5b602002602001019073ffffffffffffffffffffffffffffffffffffffff16908173ffffffffffffffffffffffffffffffffffffffff168152505080858581518110610d2457610d23613d60565b5b60200260200101819052505050508080600101915050610aea565b508181945094505050509250929050565b60078181548110610d6057600080fd5b906000526020600020016000915054906101000a900473ffffffffffffffffffffffffffffffffffffffff1681565b600260009054906101000a900473ffffffffffffffffffffffffffffffffffffffff1681565b6000600880549050905090565b610dca612d8f565b600073ffffffffffffffffffffffffffffffffffffffff168273ffffffffffffffffffffffffffffffffffffffff1603610e39576040517f08c379a0000000000000000000000000000000000000000000000000000000008152600401610e3090613cd4565b60405180910390fd5b600073ffffffffffffffffffffffffffffffffffffffff168173ffffffffffffffffffffffffffffffffffffffff1603610ea8576040517f08c379a0000000000000000000000000000000000000000000000000000000008152600401610e9f90613f0d565b60405180910390fd5b8073ffffffffffffffffffffffffffffffffffffffff166301ffc9a77f912141bf000000000000000000000000000000000000000000000000000000006040518263ffffffff1660e01b8152600401610f01919061357a565b602060405180830381865afa158015610f1e573d6000803e3d6000fd5b505050506040513d601f19601f82011682018060405250810190610f429190613f65565b610f81576040517f08c379a0000000000000000000000000000000000000000000000000000000008152600401610f7890614004565b60405180910390fd5b60405180604001604052808273ffffffffffffffffffffffffffffffffffffffff1681526020016000815250600660008473ffffffffffffffffffffffffffffffffffffffff1673ffffffffffffffffffffffffffffffffffffffff16815260200190815260200160002060008201518160000160006101000a81548173ffffffffffffffffffffffffffffffffffffffff021916908373ffffffffffffffffffffffffffffffffffffffff160217905550602082015181600101559050506007829080600181540180825580915050600190039060005260206000200160009091909190916101000a81548173ffffffffffffffffffffffffffffffffffffffff021916908373ffffffffffffffffffffffffffffffffffffffff1602179055505050565b6110af612d8f565b6110b7612e16565b6000600454905060008111611101576040517f08c379a00000000000000000000000000000000000000000000000000000000081526004016110f890614070565b60405180910390fd5b600060048190555061115d61111461133c565b82600260009054906101000a900473ffffffffffffffffffffffffffffffffffffffff1673ffffffffffffffffffffffffffffffffffffffff16612e5c9092919063ffffffff16565b7ff1799b4a346065f1966d09bb66dde4650fdbd2c0808b052b83e0fc61c1af84f08161118761133c565b604051611195929190614090565b60405180910390a1506111a6612edb565b565b60045481565b6005602052816000526040600020602052806000526040600020600091509150508060000154908060010154908060020154905083565b6111ed612d8f565b6111f76000612ee4565b565b60066020528060005260406000206000915090508060000160009054906101000a900473ffffffffffffffffffffffffffffffffffffffff16908060010154905082565b611245613280565b600560008473ffffffffffffffffffffffffffffffffffffffff1673ffffffffffffffffffffffffffffffffffffffff16815260200190815260200160002060008373ffffffffffffffffffffffffffffffffffffffff1673ffffffffffffffffffffffffffffffffffffffff1681526020019081526020016000206040518060600160405290816000820154815260200160018201548152602001600282015481525050905092915050565b6000600660003373ffffffffffffffffffffffffffffffffffffffff1673ffffffffffffffffffffffffffffffffffffffff16815260200190815260200160002060010154905090565b60008060009054906101000a900473ffffffffffffffffffffffffffffffffffffffff16905090565b61136d612d8f565b60008060005b6007805490508110156115835760006007828154811061139657611395613d60565b5b9060005260206000200160009054906101000a900473ffffffffffffffffffffffffffffffffffffffff1690506000600560008773ffffffffffffffffffffffffffffffffffffffff1673ffffffffffffffffffffffffffffffffffffffff16815260200190815260200160002060008373ffffffffffffffffffffffffffffffffffffffff1673ffffffffffffffffffffffffffffffffffffffff1681526020019081526020016000206000015490506000600660008473ffffffffffffffffffffffffffffffffffffffff1673ffffffffffffffffffffffffffffffffffffffff16815260200190815260200160002060000160009054906101000a900473ffffffffffffffffffffffffffffffffffffffff1690506000821461157357600195508673ffffffffffffffffffffffffffffffffffffffff168173ffffffffffffffffffffffffffffffffffffffff16636352211e846040518263ffffffff1660e01b815260040161150a919061396c565b602060405180830381865afa158015611527573d6000803e3d6000fd5b505050506040513d601f19601f8201168201806040525081019061154b91906140ce565b73ffffffffffffffffffffffffffffffffffffffff16036115725760019450505050611583565b5b5050508080600101915050611373565b50816115c4576040517f08c379a00000000000000000000000000000000000000000000000000000000081526004016115bb90614147565b60405180910390fd5b8015611605576040517f08c379a00000000000000000000000000000000000000000000000000000000081526004016115fc906141d9565b60405180910390fd5b60005b6007805490508110156116fd5760006007828154811061162b5761162a613d60565b5b9060005260206000200160009054906101000a900473ffffffffffffffffffffffffffffffffffffffff169050600560008673ffffffffffffffffffffffffffffffffffffffff1673ffffffffffffffffffffffffffffffffffffffff16815260200190815260200160002060008273ffffffffffffffffffffffffffffffffffffffff1673ffffffffffffffffffffffffffffffffffffffff168152602001908152602001600020600080820160009055600182016000905560028201600090555050508080600101915050611608565b5060005b600880549050811015611884578373ffffffffffffffffffffffffffffffffffffffff166008828154811061173957611738613d60565b5b9060005260206000200160009054906101000a900473ffffffffffffffffffffffffffffffffffffffff1673ffffffffffffffffffffffffffffffffffffffff160361187757600860016008805490506117939190613dbe565b815481106117a4576117a3613d60565b5b9060005260206000200160009054906101000a900473ffffffffffffffffffffffffffffffffffffffff16600882815481106117e3576117e2613d60565b5b9060005260206000200160006101000a81548173ffffffffffffffffffffffffffffffffffffffff021916908373ffffffffffffffffffffffffffffffffffffffff160217905550600880548061183d5761183c613df2565b5b6001900381819060005260206000200160006101000a81549073ffffffffffffffffffffffffffffffffffffffff02191690559055611884565b8080600101915050611701565b50600073ffffffffffffffffffffffffffffffffffffffff168373ffffffffffffffffffffffffffffffffffffffff167fd48e6d793c8afe40a0f34910ea7cff19109975cbb719b1eaa50d468b0f4c60e46000426040516118e6929190614234565b60405180910390a3505050565b6000600780549050905090565b60035481565b61190e612d8f565b611388811115611953576040517f08c379a000000000000000000000000000000000000000000000000000000000815260040161194a906142a9565b60405180910390fd5b806003819055507f74516f05eb4bd2461d57aa1e935ee553f86a3e02bfed7759f2f772915de3d9be81604051611989919061396c565b60405180910390a150565b6000600660003373ffffffffffffffffffffffffffffffffffffffff1673ffffffffffffffffffffffffffffffffffffffff16815260200190815260200160002060000160009054906101000a900473ffffffffffffffffffffffffffffffffffffffff16905090565b60088181548110611a0e57600080fd5b906000526020600020016000915054906101000a900473ffffffffffffffffffffffffffffffffffffffff1681565b6060806060611a4a612d8f565b600780549050841115611a92576040517f08c379a0000000000000000000000000000000000000000000000000000000008152600401611a8990614315565b60405180910390fd5b60006007805490508686611aa69190613e8d565b11611abc578585611ab79190613e8d565b611ac3565b6007805490505b905060008582611ad39190613dbe565b905060008167ffffffffffffffff811115611af157611af0613391565b5b604051908082528060200260200182016040528015611b1f5781602001602082028036833780820191505090505b50905060008267ffffffffffffffff811115611b3e57611b3d613391565b5b604051908082528060200260200182016040528015611b6c5781602001602082028036833780820191505090505b50905060008367ffffffffffffffff811115611b8b57611b8a613391565b5b604051908082528060200260200182016040528015611bb95781602001602082028036833780820191505090505b50905060008990505b85811015611e125760078181548110611bde57611bdd613d60565b5b9060005260206000200160009054906101000a900473ffffffffffffffffffffffffffffffffffffffff16848b83611c169190613dbe565b81518110611c2757611c26613d60565b5b602002602001019073ffffffffffffffffffffffffffffffffffffffff16908173ffffffffffffffffffffffffffffffffffffffff16815250506006600060078381548110611c7957611c78613d60565b5b9060005260206000200160009054906101000a900473ffffffffffffffffffffffffffffffffffffffff1673ffffffffffffffffffffffffffffffffffffffff1673ffffffffffffffffffffffffffffffffffffffff16815260200190815260200160002060010154838b83611cef9190613dbe565b81518110611d0057611cff613d60565b5b6020026020010181815250506006600060078381548110611d2457611d23613d60565b5b9060005260206000200160009054906101000a900473ffffffffffffffffffffffffffffffffffffffff1673ffffffffffffffffffffffffffffffffffffffff1673ffffffffffffffffffffffffffffffffffffffff16815260200190815260200160002060000160009054906101000a900473ffffffffffffffffffffffffffffffffffffffff16828b83611dba9190613dbe565b81518110611dcb57611dca613d60565b5b602002602001019073ffffffffffffffffffffffffffffffffffffffff16908173ffffffffffffffffffffffffffffffffffffffff16815250508080600101915050611bc2565b5082828297509750975050505050509250925092565b60606000600780549050905060008167ffffffffffffffff811115611e5057611e4f613391565b5b604051908082528060200260200182016040528015611e8957816020015b611e76613280565b815260200190600190039081611e6e5790505b50905060005b82811015611fab57600060078281548110611ead57611eac613d60565b5b9060005260206000200160009054906101000a900473ffffffffffffffffffffffffffffffffffffffff169050600560008773ffffffffffffffffffffffffffffffffffffffff1673ffffffffffffffffffffffffffffffffffffffff16815260200190815260200160002060008273ffffffffffffffffffffffffffffffffffffffff1673ffffffffffffffffffffffffffffffffffffffff1681526020019081526020016000206040518060600160405290816000820154815260200160018201548152602001600282015481525050838381518110611f9257611f91613d60565b5b6020026020010181905250508080600101915050611e8f565b508092505050919050565b611fbe612d8f565b611fc6612e16565b600073ffffffffffffffffffffffffffffffffffffffff168373ffffffffffffffffffffffffffffffffffffffff1603612035576040517f08c379a000000000000000000000000000000000000000000000000000000000815260040161202c90613cd4565b60405180910390fd5b60008211612078576040517f08c379a000000000000000000000000000000000000000000000000000000000815260040161206f90614381565b60405180910390fd5b600081116120bb576040517f08c379a00000000000000000000000000000000000000000000000000000000081526004016120b2906143ed565b60405180910390fd5b6000600660008573ffffffffffffffffffffffffffffffffffffffff1673ffffffffffffffffffffffffffffffffffffffff1681526020019081526020016000209050600073ffffffffffffffffffffffffffffffffffffffff168160000160009054906101000a900473ffffffffffffffffffffffffffffffffffffffff1673ffffffffffffffffffffffffffffffffffffffff1603612191576040517f08c379a000000000000000000000000000000000000000000000000000000000815260040161218890614459565b60405180910390fd5b6000600560008773ffffffffffffffffffffffffffffffffffffffff1673ffffffffffffffffffffffffffffffffffffffff16815260200190815260200160002060008673ffffffffffffffffffffffffffffffffffffffff1673ffffffffffffffffffffffffffffffffffffffff16815260200190815260200160002090506000428260010154111590506000808360010154149050600086600260009054906101000a900473ffffffffffffffffffffffffffffffffffffffff1673ffffffffffffffffffffffffffffffffffffffff166370a082318b6040518263ffffffff1660e01b815260040161228691906138c8565b602060405180830381865afa1580156122a3573d6000803e3d6000fd5b505050506040513d601f19601f820116820180604052508101906122c7919061448e565b10159050600087600260009054906101000a900473ffffffffffffffffffffffffffffffffffffffff1673ffffffffffffffffffffffffffffffffffffffff1663dd62ed3e8c306040518363ffffffff1660e01b815260040161232b9291906144bb565b602060405180830381865afa158015612348573d6000803e3d6000fd5b505050506040513d601f19601f8201168201806040525081019061236c919061448e565b1015905083806123795750825b801561238c575081158061238b575080155b5b156125f0578215801561246b57508973ffffffffffffffffffffffffffffffffffffffff168660000160009054906101000a900473ffffffffffffffffffffffffffffffffffffffff1673ffffffffffffffffffffffffffffffffffffffff16636352211e87600001546040518263ffffffff1660e01b8152600401612412919061396c565b602060405180830381865afa15801561242f573d6000803e3d6000fd5b505050506040513d601f19601f8201168201806040525081019061245391906140ce565b73ffffffffffffffffffffffffffffffffffffffff16145b156125b5578560000160009054906101000a900473ffffffffffffffffffffffffffffffffffffffff1673ffffffffffffffffffffffffffffffffffffffff166342842e0e8b3088600001546040518463ffffffff1660e01b81526004016124d5939291906144e4565b600060405180830381600087803b1580156124ef57600080fd5b505af1925050508015612500575060015b61253f576040517f08c379a00000000000000000000000000000000000000000000000000000000081526004016125369061458d565b60405180910390fd5b8873ffffffffffffffffffffffffffffffffffffffff168a73ffffffffffffffffffffffffffffffffffffffff167f425a9d51f657355700ba416a4e9e606a23b8c5831a992441ddf42544656e3a8e8760000154426040516125a29291906145ad565b60405180910390a3505050505050612b90565b6040517f08c379a00000000000000000000000000000000000000000000000000000000081526004016125e790614648565b60405180910390fd5b8215612801578560000160009054906101000a900473ffffffffffffffffffffffffffffffffffffffff1673ffffffffffffffffffffffffffffffffffffffff16636a6278428b6040518263ffffffff1660e01b815260040161265391906138c8565b6020604051808303816000875af1158015612672573d6000803e3d6000fd5b505050506040513d601f19601f82011682018060405250810190612696919061448e565b508560000160009054906101000a900473ffffffffffffffffffffffffffffffffffffffff1673ffffffffffffffffffffffffffffffffffffffff166383c4c00d6040518163ffffffff1660e01b8152600401602060405180830381865afa158015612706573d6000803e3d6000fd5b505050506040513d601f19601f8201168201806040525081019061272a919061448e565b856000018190555060088a9080600181540180825580915050600190039060005260206000200160009091909190916101000a81548173ffffffffffffffffffffffffffffffffffffffff021916908373ffffffffffffffffffffffffffffffffffffffff1602179055508873ffffffffffffffffffffffffffffffffffffffff168a73ffffffffffffffffffffffffffffffffffffffff167ffce7edb911fc03f29bc29d65e85b5c438933c642e54bb0916eeab4b25b9b201b8760000154426040516127f89291906145ad565b60405180910390a35b60006127106003548a6128149190614668565b61281e91906146d9565b90506000818a61282e9190613dbe565b905081600460008282546128429190613e8d565b925050819055507f515afd0dbcff74a356504007eab57e6ccab0257c2dfd6ff3e0b3a6b82e03dc6c82604051612878919061396c565b60405180910390a1808860010160008282546128949190613e8d565b925050819055506128ea8c308c600260009054906101000a900473ffffffffffffffffffffffffffffffffffffffff1673ffffffffffffffffffffffffffffffffffffffff16612fa8909392919063ffffffff16565b8a73ffffffffffffffffffffffffffffffffffffffff168c73ffffffffffffffffffffffffffffffffffffffff167fb9fb64ccf647f3e7ba45742b97b6b8e464a822c67817276accb7b1f905d292a2428d8d60405161294b939291906139c7565b60405180910390a3848061295c5750855b1561297a57884261296d9190613e8d565b8760010181905550612996565b8887600101600082825461298e9190613e8d565b925050819055505b888760020181905550428760010154118015612a7f57508b73ffffffffffffffffffffffffffffffffffffffff168860000160009054906101000a900473ffffffffffffffffffffffffffffffffffffffff1673ffffffffffffffffffffffffffffffffffffffff16636352211e89600001546040518263ffffffff1660e01b8152600401612a25919061396c565b602060405180830381865afa158015612a42573d6000803e3d6000fd5b505050506040513d601f19601f82011682018060405250810190612a6691906140ce565b73ffffffffffffffffffffffffffffffffffffffff1614155b15612b87578760000160009054906101000a900473ffffffffffffffffffffffffffffffffffffffff1673ffffffffffffffffffffffffffffffffffffffff166342842e0e308e8a600001546040518463ffffffff1660e01b8152600401612ae9939291906144e4565b600060405180830381600087803b158015612b0357600080fd5b505af1158015612b17573d6000803e3d6000fd5b505050508a73ffffffffffffffffffffffffffffffffffffffff168c73ffffffffffffffffffffffffffffffffffffffff167ffce7edb911fc03f29bc29d65e85b5c438933c642e54bb0916eeab4b25b9b201b896000015442604051612b7e9291906145ad565b60405180910390a35b50505050505050505b612b98612edb565b50505050565b612ba6612d8f565b600073ffffffffffffffffffffffffffffffffffffffff168173ffffffffffffffffffffffffffffffffffffffff1603612c185760006040517f1e4fbdf7000000000000000000000000000000000000000000000000000000008152600401612c0f91906138c8565b60405180910390fd5b612c2181612ee4565b50565b612c2c612e16565b6000600660003373ffffffffffffffffffffffffffffffffffffffff1673ffffffffffffffffffffffffffffffffffffffff16815260200190815260200160002060010154905060008111612cb6576040517f08c379a0000000000000000000000000000000000000000000000000000000008152600401612cad90614756565b60405180910390fd5b6000600660003373ffffffffffffffffffffffffffffffffffffffff1673ffffffffffffffffffffffffffffffffffffffff16815260200190815260200160002060010181905550612d4b3382600260009054906101000a900473ffffffffffffffffffffffffffffffffffffffff1673ffffffffffffffffffffffffffffffffffffffff16612e5c9092919063ffffffff16565b7f13c0eff431e6b59a7445fc04c8dc9c49b146a4f2d8c700148e3bc64cf55811fe8133604051612d7c929190614090565b60405180910390a150612d8d612edb565b565b612d9761302a565b73ffffffffffffffffffffffffffffffffffffffff16612db561133c565b73ffffffffffffffffffffffffffffffffffffffff1614612e1457612dd861302a565b6040517f118cdaa7000000000000000000000000000000000000000000000000000000008152600401612e0b91906138c8565b60405180910390fd5b565b600260015403612e52576040517f3ee5aeb500000000000000000000000000000000000000000000000000000000815260040160405180910390fd5b6002600181905550565b612ed6838473ffffffffffffffffffffffffffffffffffffffff1663a9059cbb8585604051602401612e8f9291906139fe565b604051602081830303815290604052915060e01b6020820180517bffffffffffffffffffffffffffffffffffffffffffffffffffffffff8381831617835250505050613032565b505050565b60018081905550565b60008060009054906101000a900473ffffffffffffffffffffffffffffffffffffffff169050816000806101000a81548173ffffffffffffffffffffffffffffffffffffffff021916908373ffffffffffffffffffffffffffffffffffffffff1602179055508173ffffffffffffffffffffffffffffffffffffffff168173ffffffffffffffffffffffffffffffffffffffff167f8be0079c531659141344cd1fd0a4f28419497f9722a3daafe3b4186f6b6457e060405160405180910390a35050565b613024848573ffffffffffffffffffffffffffffffffffffffff166323b872dd868686604051602401612fdd939291906144e4565b604051602081830303815290604052915060e01b6020820180517bffffffffffffffffffffffffffffffffffffffffffffffffffffffff8381831617835250505050613032565b50505050565b600033905090565b600061305d828473ffffffffffffffffffffffffffffffffffffffff166130c990919063ffffffff16565b905060008151141580156130825750808060200190518101906130809190613f65565b155b156130c457826040517f5274afe70000000000000000000000000000000000000000000000000000000081526004016130bb91906138c8565b60405180910390fd5b505050565b60606130d7838360006130df565b905092915050565b60608147101561312657306040517fcd78605900000000000000000000000000000000000000000000000000000000815260040161311d91906138c8565b60405180910390fd5b6000808573ffffffffffffffffffffffffffffffffffffffff16848660405161314f91906147e7565b60006040518083038185875af1925050503d806000811461318c576040519150601f19603f3d011682016040523d82523d6000602084013e613191565b606091505b50915091506131a18683836131ac565b925050509392505050565b6060826131c1576131bc8261323b565b613233565b600082511480156131e9575060008473ffffffffffffffffffffffffffffffffffffffff163b145b1561322b57836040517f9996b31500000000000000000000000000000000000000000000000000000000815260040161322291906138c8565b60405180910390fd5b819050613234565b5b9392505050565b60008151111561324e5780518082602001fd5b6040517f1425ea4200000000000000000000000000000000000000000000000000000000815260040160405180910390fd5b60405180606001604052806000815260200160008152602001600081525090565b6000604051905090565b600080fd5b600080fd5b600073ffffffffffffffffffffffffffffffffffffffff82169050919050565b60006132e0826132b5565b9050919050565b6132f0816132d5565b81146132fb57600080fd5b50565b60008135905061330d816132e7565b92915050565b600060208284031215613329576133286132ab565b5b6000613337848285016132fe565b91505092915050565b6000819050919050565b61335381613340565b811461335e57600080fd5b50565b6000813590506133708161334a565b92915050565b600080fd5b600080fd5b6000601f19601f8301169050919050565b7f4e487b7100000000000000000000000000000000000000000000000000000000600052604160045260246000fd5b6133c982613380565b810181811067ffffffffffffffff821117156133e8576133e7613391565b5b80604052505050565b60006133fb6132a1565b905061340782826133c0565b919050565b600067ffffffffffffffff82111561342757613426613391565b5b61343082613380565b9050602081019050919050565b82818337600083830152505050565b600061345f61345a8461340c565b6133f1565b90508281526020810184848401111561347b5761347a61337b565b5b61348684828561343d565b509392505050565b600082601f8301126134a3576134a2613376565b5b81356134b384826020860161344c565b91505092915050565b600080600080608085870312156134d6576134d56132ab565b5b60006134e4878288016132fe565b94505060206134f5878288016132fe565b935050604061350687828801613361565b925050606085013567ffffffffffffffff811115613527576135266132b0565b5b6135338782880161348e565b91505092959194509250565b60007fffffffff0000000000000000000000000000000000000000000000000000000082169050919050565b6135748161353f565b82525050565b600060208201905061358f600083018461356b565b92915050565b600080604083850312156135ac576135ab6132ab565b5b60006135ba85828601613361565b92505060206135cb85828601613361565b9150509250929050565b600081519050919050565b600082825260208201905092915050565b6000819050602082019050919050565b61360a816132d5565b82525050565b600061361c8383613601565b60208301905092915050565b6000602082019050919050565b6000613640826135d5565b61364a81856135e0565b9350613655836135f1565b8060005b8381101561368657815161366d8882613610565b975061367883613628565b925050600181019050613659565b5085935050505092915050565b600081519050919050565b600082825260208201905092915050565b6000819050602082019050919050565b600081519050919050565b600082825260208201905092915050565b6000819050602082019050919050565b6136f481613340565b82525050565b60608201600082015161371060008501826136eb565b50602082015161372360208501826136eb565b50604082015161373660408501826136eb565b50505050565b600061374883836136fa565b60608301905092915050565b6000602082019050919050565b600061376c826136bf565b61377681856136ca565b9350613781836136db565b8060005b838110156137b2578151613799888261373c565b97506137a483613754565b925050600181019050613785565b5085935050505092915050565b60006137cb8383613761565b905092915050565b6000602082019050919050565b60006137eb82613693565b6137f5818561369e565b935083602082028501613807856136af565b8060005b85811015613843578484038952815161382485826137bf565b945061382f836137d3565b925060208a0199505060018101905061380b565b50829750879550505050505092915050565b6000604082019050818103600083015261386f8185613635565b9050818103602083015261388381846137e0565b90509392505050565b6000602082840312156138a2576138a16132ab565b5b60006138b084828501613361565b91505092915050565b6138c2816132d5565b82525050565b60006020820190506138dd60008301846138b9565b92915050565b6000819050919050565b60006139086139036138fe846132b5565b6138e3565b6132b5565b9050919050565b600061391a826138ed565b9050919050565b600061392c8261390f565b9050919050565b61393c81613921565b82525050565b60006020820190506139576000830184613933565b92915050565b61396681613340565b82525050565b6000602082019050613981600083018461395d565b92915050565b6000806040838503121561399e5761399d6132ab565b5b60006139ac858286016132fe565b92505060206139bd858286016132fe565b9150509250929050565b60006060820190506139dc600083018661395d565b6139e9602083018561395d565b6139f6604083018461395d565b949350505050565b6000604082019050613a1360008301856138b9565b613a20602083018461395d565b9392505050565b606082016000820151613a3d60008501826136eb565b506020820151613a5060208501826136eb565b506040820151613a6360408501826136eb565b50505050565b6000606082019050613a7e6000830184613a27565b92915050565b600081519050919050565b600082825260208201905092915050565b6000819050602082019050919050565b6000613abc83836136eb565b60208301905092915050565b6000602082019050919050565b6000613ae082613a84565b613aea8185613a8f565b9350613af583613aa0565b8060005b83811015613b26578151613b0d8882613ab0565b9750613b1883613ac8565b925050600181019050613af9565b5085935050505092915050565b60006060820190508181036000830152613b4d8186613635565b90508181036020830152613b618185613ad5565b90508181036040830152613b758184613635565b9050949350505050565b600082825260208201905092915050565b6000613b9b826136bf565b613ba58185613b7f565b9350613bb0836136db565b8060005b83811015613be1578151613bc8888261373c565b9750613bd383613754565b925050600181019050613bb4565b5085935050505092915050565b60006020820190508181036000830152613c088184613b90565b905092915050565b60008060008060808587031215613c2a57613c296132ab565b5b6000613c38878288016132fe565b9450506020613c49878288016132fe565b9350506040613c5a87828801613361565b9250506060613c6b87828801613361565b91505092959194509250565b600082825260208201905092915050565b7f496e76616c696420636f6e74726163746f722061646472657373000000000000600082015250565b6000613cbe601a83613c77565b9150613cc982613c88565b602082019050919050565b60006020820190508181036000830152613ced81613cb1565b9050919050565b7f436f6e74726163746f722068617320612062616c616e63650000000000000000600082015250565b6000613d2a601883613c77565b9150613d3582613cf4565b602082019050919050565b60006020820190508181036000830152613d5981613d1d565b9050919050565b7f4e487b7100000000000000000000000000000000000000000000000000000000600052603260045260246000fd5b7f4e487b7100000000000000000000000000000000000000000000000000000000600052601160045260246000fd5b6000613dc982613340565b9150613dd483613340565b9250828203905081811115613dec57613deb613d8f565b5b92915050565b7f4e487b7100000000000000000000000000000000000000000000000000000000600052603160045260246000fd5b7f536b6970206578636565647320746f74616c20637573746f6d65727300000000600082015250565b6000613e57601c83613c77565b9150613e6282613e21565b602082019050919050565b60006020820190508181036000830152613e8681613e4a565b9050919050565b6000613e9882613340565b9150613ea383613340565b9250828201905080821115613ebb57613eba613d8f565b5b92915050565b7f496e76616c6964204e465420636f6c6c656374696f6e00000000000000000000600082015250565b6000613ef7601683613c77565b9150613f0282613ec1565b602082019050919050565b60006020820190508181036000830152613f2681613eea565b9050919050565b60008115159050919050565b613f4281613f2d565b8114613f4d57600080fd5b50565b600081519050613f5f81613f39565b92915050565b600060208284031215613f7b57613f7a6132ab565b5b6000613f8984828501613f50565b91505092915050565b7f4e465420636f6c6c656374696f6e20646f6573206e6f7420737570706f72742060008201527f494e4654436f6c6c656374696f6e20696e746572666163650000000000000000602082015250565b6000613fee603883613c77565b9150613ff982613f92565b604082019050919050565b6000602082019050818103600083015261401d81613fe1565b9050919050565b7f4e6f206665657320746f20776974686472617700000000000000000000000000600082015250565b600061405a601383613c77565b915061406582614024565b602082019050919050565b600060208201905081810360008301526140898161404d565b9050919050565b60006040820190506140a5600083018561395d565b6140b260208301846138b9565b9392505050565b6000815190506140c8816132e7565b92915050565b6000602082840312156140e4576140e36132ab565b5b60006140f2848285016140b9565b91505092915050565b7f437573746f6d657220646f6573206e6f74206578697374000000000000000000600082015250565b6000614131601783613c77565b915061413c826140fb565b602082019050919050565b6000602082019050818103600083015261416081614124565b9050919050565b7f437573746f6d6572207374696c6c20686173206163746976652061636365737360008201527f20696e206120636f6e74726163746f7200000000000000000000000000000000602082015250565b60006141c3603083613c77565b91506141ce82614167565b604082019050919050565b600060208201905081810360008301526141f2816141b6565b9050919050565b6000819050919050565b600061421e614219614214846141f9565b6138e3565b613340565b9050919050565b61422e81614203565b82525050565b60006040820190506142496000830185614225565b614256602083018461395d565b9392505050565b7f4665652070657263656e7461676520746f6f2068696768000000000000000000600082015250565b6000614293601783613c77565b915061429e8261425d565b602082019050919050565b600060208201905081810360008301526142c281614286565b9050919050565b7f536b6970206578636565647320746f74616c20636f6e74726163746f72730000600082015250565b60006142ff601e83613c77565b915061430a826142c9565b602082019050919050565b6000602082019050818103600083015261432e816142f2565b9050919050565b7f496e76616c696420616d6f756e74000000000000000000000000000000000000600082015250565b600061436b600e83613c77565b915061437682614335565b602082019050919050565b6000602082019050818103600083015261439a8161435e565b9050919050565b7f496e76616c6964206475726174696f6e00000000000000000000000000000000600082015250565b60006143d7601083613c77565b91506143e2826143a1565b602082019050919050565b60006020820190508181036000830152614406816143ca565b9050919050565b7f436f6e74726163746f72206e6f74207265676973746572656400000000000000600082015250565b6000614443601983613c77565b915061444e8261440d565b602082019050919050565b6000602082019050818103600083015261447281614436565b9050919050565b6000815190506144888161334a565b92915050565b6000602082840312156144a4576144a36132ab565b5b60006144b284828501614479565b91505092915050565b60006040820190506144d060008301856138b9565b6144dd60208301846138b9565b9392505050565b60006060820190506144f960008301866138b9565b61450660208301856138b9565b614513604083018461395d565b949350505050565b7f4661696c656420746f207265766f6b65204e46542e20437573746f6d6572206d60008201527f6179206e6f74206f776e2069742e000000000000000000000000000000000000602082015250565b6000614577602e83613c77565b91506145828261451b565b604082019050919050565b600060208201905081810360008301526145a68161456a565b9050919050565b60006040820190506145c2600083018561395d565b6145cf602083018461395d565b9392505050565b7f496e73756666696369656e742062616c616e636520616e642f6f7220616c6c6f60008201527f77616e63652e0000000000000000000000000000000000000000000000000000602082015250565b6000614632602683613c77565b915061463d826145d6565b604082019050919050565b6000602082019050818103600083015261466181614625565b9050919050565b600061467382613340565b915061467e83613340565b925082820261468c81613340565b915082820484148315176146a3576146a2613d8f565b5b5092915050565b7f4e487b7100000000000000000000000000000000000000000000000000000000600052601260045260246000fd5b60006146e482613340565b91506146ef83613340565b9250826146ff576146fe6146aa565b5b828204905092915050565b7f4e6f2062616c616e636520746f20776974686472617700000000000000000000600082015250565b6000614740601683613c77565b915061474b8261470a565b602082019050919050565b6000602082019050818103600083015261476f81614733565b9050919050565b600081519050919050565b600081905092915050565b60005b838110156147aa57808201518184015260208101905061478f565b60008484015250505050565b60006147c182614776565b6147cb8185614781565b93506147db81856020860161478c565b80840191505092915050565b60006147f382846147b6565b91508190509291505056fea2646970667358221220ac12de405f1d48c08b1403cff4f578802adb39ad2bcaeb6d5e792508d97fd12964736f6c63430008180033",
    "linkReferences": {},
    "deployedLinkReferences": {}
}