{
    "_format": "hh-sol-artifact-1",
    "contractName": "BymaxPayCollection",
    "sourceName": "contracts/BymaxPayCollection.sol",
    "abi": [
        {
            "inputs": [],
            "stateMutability": "nonpayable",
            "type": "constructor"
        },
        {
            "inputs": [
                {
                    "internalType": "address",
                    "name": "sender",
                    "type": "address"
                },
                {
                    "internalType": "uint256",
                    "name": "tokenId",
                    "type": "uint256"
                },
                {
                    "internalType": "address",
                    "name": "owner",
                    "type": "address"
                }
            ],
            "name": "ERC721IncorrectOwner",
            "type": "error"
        },
        {
            "inputs": [
                {
                    "internalType": "address",
                    "name": "operator",
                    "type": "address"
                },
                {
                    "internalType": "uint256",
                    "name": "tokenId",
                    "type": "uint256"
                }
            ],
            "name": "ERC721InsufficientApproval",
            "type": "error"
        },
        {
            "inputs": [
                {
                    "internalType": "address",
                    "name": "approver",
                    "type": "address"
                }
            ],
            "name": "ERC721InvalidApprover",
            "type": "error"
        },
        {
            "inputs": [
                {
                    "internalType": "address",
                    "name": "operator",
                    "type": "address"
                }
            ],
            "name": "ERC721InvalidOperator",
            "type": "error"
        },
        {
            "inputs": [
                {
                    "internalType": "address",
                    "name": "owner",
                    "type": "address"
                }
            ],
            "name": "ERC721InvalidOwner",
            "type": "error"
        },
        {
            "inputs": [
                {
                    "internalType": "address",
                    "name": "receiver",
                    "type": "address"
                }
            ],
            "name": "ERC721InvalidReceiver",
            "type": "error"
        },
        {
            "inputs": [
                {
                    "internalType": "address",
                    "name": "sender",
                    "type": "address"
                }
            ],
            "name": "ERC721InvalidSender",
            "type": "error"
        },
        {
            "inputs": [
                {
                    "internalType": "uint256",
                    "name": "tokenId",
                    "type": "uint256"
                }
            ],
            "name": "ERC721NonexistentToken",
            "type": "error"
        },
        {
            "inputs": [
                {
                    "internalType": "address",
                    "name": "owner",
                    "type": "address"
                }
            ],
            "name": "OwnableInvalidOwner",
            "type": "error"
        },
        {
            "inputs": [
                {
                    "internalType": "address",
                    "name": "account",
                    "type": "address"
                }
            ],
            "name": "OwnableUnauthorizedAccount",
            "type": "error"
        },
        {
            "anonymous": false,
            "inputs": [
                {
                    "indexed": true,
                    "internalType": "address",
                    "name": "owner",
                    "type": "address"
                },
                {
                    "indexed": true,
                    "internalType": "address",
                    "name": "approved",
                    "type": "address"
                },
                {
                    "indexed": true,
                    "internalType": "uint256",
                    "name": "tokenId",
                    "type": "uint256"
                }
            ],
            "name": "Approval",
            "type": "event"
        },
        {
            "anonymous": false,
            "inputs": [
                {
                    "indexed": true,
                    "internalType": "address",
                    "name": "owner",
                    "type": "address"
                },
                {
                    "indexed": true,
                    "internalType": "address",
                    "name": "operator",
                    "type": "address"
                },
                {
                    "indexed": false,
                    "internalType": "bool",
                    "name": "approved",
                    "type": "bool"
                }
            ],
            "name": "ApprovalForAll",
            "type": "event"
        },
        {
            "anonymous": false,
            "inputs": [
                {
                    "indexed": true,
                    "internalType": "address",
                    "name": "previousOwner",
                    "type": "address"
                },
                {
                    "indexed": true,
                    "internalType": "address",
                    "name": "newOwner",
                    "type": "address"
                }
            ],
            "name": "OwnershipTransferred",
            "type": "event"
        },
        {
            "anonymous": false,
            "inputs": [
                {
                    "indexed": true,
                    "internalType": "address",
                    "name": "from",
                    "type": "address"
                },
                {
                    "indexed": true,
                    "internalType": "address",
                    "name": "to",
                    "type": "address"
                },
                {
                    "indexed": true,
                    "internalType": "uint256",
                    "name": "tokenId",
                    "type": "uint256"
                }
            ],
            "name": "Transfer",
            "type": "event"
        },
        {
            "inputs": [
                {
                    "internalType": "address",
                    "name": "to",
                    "type": "address"
                },
                {
                    "internalType": "uint256",
                    "name": "tokenId",
                    "type": "uint256"
                }
            ],
            "name": "approve",
            "outputs": [],
            "stateMutability": "nonpayable",
            "type": "function"
        },
        {
            "inputs": [],
            "name": "authorizedContract",
            "outputs": [
                {
                    "internalType": "address",
                    "name": "",
                    "type": "address"
                }
            ],
            "stateMutability": "view",
            "type": "function"
        },
        {
            "inputs": [
                {
                    "internalType": "address",
                    "name": "owner",
                    "type": "address"
                }
            ],
            "name": "balanceOf",
            "outputs": [
                {
                    "internalType": "uint256",
                    "name": "",
                    "type": "uint256"
                }
            ],
            "stateMutability": "view",
            "type": "function"
        },
        {
            "inputs": [],
            "name": "baseUri",
            "outputs": [
                {
                    "internalType": "string",
                    "name": "",
                    "type": "string"
                }
            ],
            "stateMutability": "view",
            "type": "function"
        },
        {
            "inputs": [
                {
                    "internalType": "uint256",
                    "name": "tokenId",
                    "type": "uint256"
                }
            ],
            "name": "burn",
            "outputs": [],
            "stateMutability": "nonpayable",
            "type": "function"
        },
        {
            "inputs": [
                {
                    "internalType": "uint256",
                    "name": "tokenId",
                    "type": "uint256"
                }
            ],
            "name": "getApproved",
            "outputs": [
                {
                    "internalType": "address",
                    "name": "",
                    "type": "address"
                }
            ],
            "stateMutability": "view",
            "type": "function"
        },
        {
            "inputs": [],
            "name": "getLastTokenId",
            "outputs": [
                {
                    "internalType": "uint256",
                    "name": "",
                    "type": "uint256"
                }
            ],
            "stateMutability": "view",
            "type": "function"
        },
        {
            "inputs": [
                {
                    "internalType": "address",
                    "name": "owner",
                    "type": "address"
                },
                {
                    "internalType": "address",
                    "name": "operator",
                    "type": "address"
                }
            ],
            "name": "isApprovedForAll",
            "outputs": [
                {
                    "internalType": "bool",
                    "name": "",
                    "type": "bool"
                }
            ],
            "stateMutability": "view",
            "type": "function"
        },
        {
            "inputs": [
                {
                    "internalType": "address",
                    "name": "customer",
                    "type": "address"
                }
            ],
            "name": "mint",
            "outputs": [
                {
                    "internalType": "uint256",
                    "name": "",
                    "type": "uint256"
                }
            ],
            "stateMutability": "nonpayable",
            "type": "function"
        },
        {
            "inputs": [],
            "name": "name",
            "outputs": [
                {
                    "internalType": "string",
                    "name": "",
                    "type": "string"
                }
            ],
            "stateMutability": "view",
            "type": "function"
        },
        {
            "inputs": [],
            "name": "owner",
            "outputs": [
                {
                    "internalType": "address",
                    "name": "",
                    "type": "address"
                }
            ],
            "stateMutability": "view",
            "type": "function"
        },
        {
            "inputs": [
                {
                    "internalType": "uint256",
                    "name": "tokenId",
                    "type": "uint256"
                }
            ],
            "name": "ownerOf",
            "outputs": [
                {
                    "internalType": "address",
                    "name": "",
                    "type": "address"
                }
            ],
            "stateMutability": "view",
            "type": "function"
        },
        {
            "inputs": [],
            "name": "renounceOwnership",
            "outputs": [],
            "stateMutability": "nonpayable",
            "type": "function"
        },
        {
            "inputs": [
                {
                    "internalType": "address",
                    "name": "from",
                    "type": "address"
                },
                {
                    "internalType": "address",
                    "name": "to",
                    "type": "address"
                },
                {
                    "internalType": "uint256",
                    "name": "tokenId",
                    "type": "uint256"
                }
            ],
            "name": "safeTransferFrom",
            "outputs": [],
            "stateMutability": "nonpayable",
            "type": "function"
        },
        {
            "inputs": [
                {
                    "internalType": "address",
                    "name": "from",
                    "type": "address"
                },
                {
                    "internalType": "address",
                    "name": "to",
                    "type": "address"
                },
                {
                    "internalType": "uint256",
                    "name": "tokenId",
                    "type": "uint256"
                },
                {
                    "internalType": "bytes",
                    "name": "data",
                    "type": "bytes"
                }
            ],
            "name": "safeTransferFrom",
            "outputs": [],
            "stateMutability": "nonpayable",
            "type": "function"
        },
        {
            "inputs": [
                {
                    "internalType": "address",
                    "name": "operator",
                    "type": "address"
                },
                {
                    "internalType": "bool",
                    "name": "approved",
                    "type": "bool"
                }
            ],
            "name": "setApprovalForAll",
            "outputs": [],
            "stateMutability": "nonpayable",
            "type": "function"
        },
        {
            "inputs": [
                {
                    "internalType": "address",
                    "name": "newAuthorizedContract",
                    "type": "address"
                }
            ],
            "name": "setAuthorizedContract",
            "outputs": [],
            "stateMutability": "nonpayable",
            "type": "function"
        },
        {
            "inputs": [
                {
                    "internalType": "string",
                    "name": "newUri",
                    "type": "string"
                }
            ],
            "name": "setBaseUri",
            "outputs": [],
            "stateMutability": "nonpayable",
            "type": "function"
        },
        {
            "inputs": [
                {
                    "internalType": "bytes4",
                    "name": "interfaceId",
                    "type": "bytes4"
                }
            ],
            "name": "supportsInterface",
            "outputs": [
                {
                    "internalType": "bool",
                    "name": "",
                    "type": "bool"
                }
            ],
            "stateMutability": "view",
            "type": "function"
        },
        {
            "inputs": [],
            "name": "symbol",
            "outputs": [
                {
                    "internalType": "string",
                    "name": "",
                    "type": "string"
                }
            ],
            "stateMutability": "view",
            "type": "function"
        },
        {
            "inputs": [
                {
                    "internalType": "uint256",
                    "name": "tokenId",
                    "type": "uint256"
                }
            ],
            "name": "tokenURI",
            "outputs": [
                {
                    "internalType": "string",
                    "name": "",
                    "type": "string"
                }
            ],
            "stateMutability": "view",
            "type": "function"
        },
        {
            "inputs": [
                {
                    "internalType": "address",
                    "name": "from",
                    "type": "address"
                },
                {
                    "internalType": "address",
                    "name": "to",
                    "type": "address"
                },
                {
                    "internalType": "uint256",
                    "name": "tokenId",
                    "type": "uint256"
                }
            ],
            "name": "transferFrom",
            "outputs": [],
            "stateMutability": "nonpayable",
            "type": "function"
        },
        {
            "inputs": [
                {
                    "internalType": "address",
                    "name": "newOwner",
                    "type": "address"
                }
            ],
            "name": "transferOwnership",
            "outputs": [],
            "stateMutability": "nonpayable",
            "type": "function"
        }
    ],
    "bytecode": "0x60806040526040518060400160405280601b81526020017f687474703a2f2f6c6f63616c686f73743a333030302f6e6674732f0000000000815250600990816200004a9190620004b9565b503480156200005857600080fd5b50336040518060400160405280600a81526020017f42796d61782050617373000000000000000000000000000000000000000000008152506040518060400160405280600581526020017f42504153530000000000000000000000000000000000000000000000000000008152508160009081620000d79190620004b9565b508060019081620000e99190620004b9565b505050600073ffffffffffffffffffffffffffffffffffffffff168173ffffffffffffffffffffffffffffffffffffffff1603620001615760006040517f1e4fbdf7000000000000000000000000000000000000000000000000000000008152600401620001589190620005e5565b60405180910390fd5b62000172816200017960201b60201c565b5062000602565b6000600660009054906101000a900473ffffffffffffffffffffffffffffffffffffffff16905081600660006101000a81548173ffffffffffffffffffffffffffffffffffffffff021916908373ffffffffffffffffffffffffffffffffffffffff1602179055508173ffffffffffffffffffffffffffffffffffffffff168173ffffffffffffffffffffffffffffffffffffffff167f8be0079c531659141344cd1fd0a4f28419497f9722a3daafe3b4186f6b6457e060405160405180910390a35050565b600081519050919050565b7f4e487b7100000000000000000000000000000000000000000000000000000000600052604160045260246000fd5b7f4e487b7100000000000000000000000000000000000000000000000000000000600052602260045260246000fd5b60006002820490506001821680620002c157607f821691505b602082108103620002d757620002d662000279565b5b50919050565b60008190508160005260206000209050919050565b60006020601f8301049050919050565b600082821b905092915050565b600060088302620003417fffffffffffffffffffffffffffffffffffffffffffffffffffffffffffffffff8262000302565b6200034d868362000302565b95508019841693508086168417925050509392505050565b6000819050919050565b6000819050919050565b60006200039a620003946200038e8462000365565b6200036f565b62000365565b9050919050565b6000819050919050565b620003b68362000379565b620003ce620003c582620003a1565b8484546200030f565b825550505050565b600090565b620003e5620003d6565b620003f2818484620003ab565b505050565b5b818110156200041a576200040e600082620003db565b600181019050620003f8565b5050565b601f82111562000469576200043381620002dd565b6200043e84620002f2565b810160208510156200044e578190505b620004666200045d85620002f2565b830182620003f7565b50505b505050565b600082821c905092915050565b60006200048e600019846008026200046e565b1980831691505092915050565b6000620004a983836200047b565b9150826002028217905092915050565b620004c4826200023f565b67ffffffffffffffff811115620004e057620004df6200024a565b5b620004ec8254620002a8565b620004f98282856200041e565b600060209050601f8311600181146200053157600084156200051c578287015190505b6200052885826200049b565b86555062000598565b601f1984166200054186620002dd565b60005b828110156200056b5784890151825560018201915060208501945060208101905062000544565b868310156200058b578489015162000587601f8916826200047b565b8355505b6001600288020188555050505b505050505050565b600073ffffffffffffffffffffffffffffffffffffffff82169050919050565b6000620005cd82620005a0565b9050919050565b620005df81620005c0565b82525050565b6000602082019050620005fc6000830184620005d4565b92915050565b612afd80620006126000396000f3fe608060405234801561001057600080fd5b506004361061014d5760003560e01c806383c4c00d116100c3578063a22cb4651161007c578063a22cb4651461038a578063a6591cdf146103a6578063b88d4fde146103c4578063c87b56dd146103e0578063e985e9c514610410578063f2fde38b146104405761014d565b806383c4c00d146102da5780638da5cb5b146102f857806395d89b41146103165780639aad69e7146103345780639abc832014610350578063a0bcfc7f1461036e5761014d565b806342842e0e1161011557806342842e0e1461020857806342966c68146102245780636352211e146102405780636a6278421461027057806370a08231146102a0578063715018a6146102d05761014d565b806301ffc9a71461015257806306fdde0314610182578063081812fc146101a0578063095ea7b3146101d057806323b872dd146101ec575b600080fd5b61016c60048036038101906101679190611e43565b61045c565b6040516101799190611e8b565b60405180910390f35b61018a6104d6565b6040516101979190611f36565b60405180910390f35b6101ba60048036038101906101b59190611f8e565b610568565b6040516101c79190611ffc565b60405180910390f35b6101ea60048036038101906101e59190612043565b610584565b005b61020660048036038101906102019190612083565b61059a565b005b610222600480360381019061021d9190612083565b61069c565b005b61023e60048036038101906102399190611f8e565b6106bc565b005b61025a60048036038101906102559190611f8e565b610795565b6040516102679190611ffc565b60405180910390f35b61028a600480360381019061028591906120d6565b6107a7565b6040516102979190612112565b60405180910390f35b6102ba60048036038101906102b591906120d6565b6108d0565b6040516102c79190612112565b60405180910390f35b6102d861098a565b005b6102e261099e565b6040516102ef9190612112565b60405180910390f35b6103006109a8565b60405161030d9190611ffc565b60405180910390f35b61031e6109d2565b60405161032b9190611f36565b60405180910390f35b61034e600480360381019061034991906120d6565b610a64565b005b610358610ab0565b6040516103659190611f36565b60405180910390f35b61038860048036038101906103839190612192565b610b3e565b005b6103a4600480360381019061039f919061220b565b610b5c565b005b6103ae610b95565b6040516103bb9190611ffc565b60405180910390f35b6103de60048036038101906103d9919061237b565b610bbb565b005b6103fa60048036038101906103f59190611f8e565b610bd8565b6040516104079190611f36565b60405180910390f35b61042a600480360381019061042591906123fe565b610c12565b6040516104379190611e8b565b60405180910390f35b61045a600480360381019061045591906120d6565b610ca6565b005b60007f912141bf000000000000000000000000000000000000000000000000000000007bffffffffffffffffffffffffffffffffffffffffffffffffffffffff1916827bffffffffffffffffffffffffffffffffffffffffffffffffffffffff191614806104cf57506104ce82610d2c565b5b9050919050565b6060600080546104e59061246d565b80601f01602080910402602001604051908101604052809291908181526020018280546105119061246d565b801561055e5780601f106105335761010080835404028352916020019161055e565b820191906000526020600020905b81548152906001019060200180831161054157829003601f168201915b5050505050905090565b600061057382610e0e565b5061057d82610e96565b9050919050565b6105968282610591610ed3565b610edb565b5050565b600073ffffffffffffffffffffffffffffffffffffffff168273ffffffffffffffffffffffffffffffffffffffff160361060c5760006040517f64a0ae920000000000000000000000000000000000000000000000000000000081526004016106039190611ffc565b60405180910390fd5b6000610620838361061b610ed3565b610eed565b90508373ffffffffffffffffffffffffffffffffffffffff168173ffffffffffffffffffffffffffffffffffffffff1614610696578382826040517f64283d7b00000000000000000000000000000000000000000000000000000000815260040161068d9392919061249e565b60405180910390fd5b50505050565b6106b783838360405180602001604052806000815250610bbb565b505050565b600860009054906101000a900473ffffffffffffffffffffffffffffffffffffffff1673ffffffffffffffffffffffffffffffffffffffff163373ffffffffffffffffffffffffffffffffffffffff16148061074a575061071b6109a8565b73ffffffffffffffffffffffffffffffffffffffff163373ffffffffffffffffffffffffffffffffffffffff16145b610789576040517f08c379a000000000000000000000000000000000000000000000000000000000815260040161078090612547565b60405180910390fd5b61079281611107565b50565b60006107a082610e0e565b9050919050565b6000600860009054906101000a900473ffffffffffffffffffffffffffffffffffffffff1673ffffffffffffffffffffffffffffffffffffffff163373ffffffffffffffffffffffffffffffffffffffff16148061083757506108086109a8565b73ffffffffffffffffffffffffffffffffffffffff163373ffffffffffffffffffffffffffffffffffffffff16145b610876576040517f08c379a000000000000000000000000000000000000000000000000000000000815260040161086d906125d9565b60405180910390fd5b600060076000815461088790612628565b9190508190559050610899838261118d565b6108c783600860009054906101000a900473ffffffffffffffffffffffffffffffffffffffff1660016111ab565b80915050919050565b60008073ffffffffffffffffffffffffffffffffffffffff168273ffffffffffffffffffffffffffffffffffffffff16036109435760006040517f89c62b6400000000000000000000000000000000000000000000000000000000815260040161093a9190611ffc565b60405180910390fd5b600360008373ffffffffffffffffffffffffffffffffffffffff1673ffffffffffffffffffffffffffffffffffffffff168152602001908152602001600020549050919050565b61099261131a565b61099c60006113a1565b565b6000600754905090565b6000600660009054906101000a900473ffffffffffffffffffffffffffffffffffffffff16905090565b6060600180546109e19061246d565b80601f0160208091040260200160405190810160405280929190818152602001828054610a0d9061246d565b8015610a5a5780601f10610a2f57610100808354040283529160200191610a5a565b820191906000526020600020905b815481529060010190602001808311610a3d57829003601f168201915b5050505050905090565b610a6c61131a565b80600860006101000a81548173ffffffffffffffffffffffffffffffffffffffff021916908373ffffffffffffffffffffffffffffffffffffffff16021790555050565b60098054610abd9061246d565b80601f0160208091040260200160405190810160405280929190818152602001828054610ae99061246d565b8015610b365780601f10610b0b57610100808354040283529160200191610b36565b820191906000526020600020905b815481529060010190602001808311610b1957829003601f168201915b505050505081565b610b4661131a565b818160099182610b57929190612827565b505050565b610b6461131a565b610b9182600860009054906101000a900473ffffffffffffffffffffffffffffffffffffffff16836111ab565b5050565b600860009054906101000a900473ffffffffffffffffffffffffffffffffffffffff1681565b610bc684848461059a565b610bd284848484611467565b50505050565b6060610be261161e565b610beb836116b0565b604051602001610bfc929190612959565b6040516020818303038152906040529050919050565b6000600560008473ffffffffffffffffffffffffffffffffffffffff1673ffffffffffffffffffffffffffffffffffffffff16815260200190815260200160002060008373ffffffffffffffffffffffffffffffffffffffff1673ffffffffffffffffffffffffffffffffffffffff16815260200190815260200160002060009054906101000a900460ff16905092915050565b610cae61131a565b600073ffffffffffffffffffffffffffffffffffffffff168173ffffffffffffffffffffffffffffffffffffffff1603610d205760006040517f1e4fbdf7000000000000000000000000000000000000000000000000000000008152600401610d179190611ffc565b60405180910390fd5b610d29816113a1565b50565b60007f80ac58cd000000000000000000000000000000000000000000000000000000007bffffffffffffffffffffffffffffffffffffffffffffffffffffffff1916827bffffffffffffffffffffffffffffffffffffffffffffffffffffffff19161480610df757507f5b5e139f000000000000000000000000000000000000000000000000000000007bffffffffffffffffffffffffffffffffffffffffffffffffffffffff1916827bffffffffffffffffffffffffffffffffffffffffffffffffffffffff1916145b80610e075750610e068261177e565b5b9050919050565b600080610e1a836117e8565b9050600073ffffffffffffffffffffffffffffffffffffffff168173ffffffffffffffffffffffffffffffffffffffff1603610e8d57826040517f7e273289000000000000000000000000000000000000000000000000000000008152600401610e849190612112565b60405180910390fd5b80915050919050565b60006004600083815260200190815260200160002060009054906101000a900473ffffffffffffffffffffffffffffffffffffffff169050919050565b600033905090565b610ee88383836001611825565b505050565b600080610ef9846117e8565b9050600073ffffffffffffffffffffffffffffffffffffffff168373ffffffffffffffffffffffffffffffffffffffff1614610f3b57610f3a8184866119ea565b5b600073ffffffffffffffffffffffffffffffffffffffff168173ffffffffffffffffffffffffffffffffffffffff1614610fcc57610f7d600085600080611825565b6001600360008373ffffffffffffffffffffffffffffffffffffffff1673ffffffffffffffffffffffffffffffffffffffff168152602001908152602001600020600082825403925050819055505b600073ffffffffffffffffffffffffffffffffffffffff168573ffffffffffffffffffffffffffffffffffffffff161461104f576001600360008773ffffffffffffffffffffffffffffffffffffffff1673ffffffffffffffffffffffffffffffffffffffff168152602001908152602001600020600082825401925050819055505b846002600086815260200190815260200160002060006101000a81548173ffffffffffffffffffffffffffffffffffffffff021916908373ffffffffffffffffffffffffffffffffffffffff160217905550838573ffffffffffffffffffffffffffffffffffffffff168273ffffffffffffffffffffffffffffffffffffffff167fddf252ad1be2c89b69c2b068fc378daa952ba7f163c4a11628f55a4df523b3ef60405160405180910390a4809150509392505050565b60006111166000836000610eed565b9050600073ffffffffffffffffffffffffffffffffffffffff168173ffffffffffffffffffffffffffffffffffffffff160361118957816040517f7e2732890000000000000000000000000000000000000000000000000000000081526004016111809190612112565b60405180910390fd5b5050565b6111a7828260405180602001604052806000815250611aae565b5050565b600073ffffffffffffffffffffffffffffffffffffffff168273ffffffffffffffffffffffffffffffffffffffff160361121c57816040517f5b08ba180000000000000000000000000000000000000000000000000000000081526004016112139190611ffc565b60405180910390fd5b80600560008573ffffffffffffffffffffffffffffffffffffffff1673ffffffffffffffffffffffffffffffffffffffff16815260200190815260200160002060008473ffffffffffffffffffffffffffffffffffffffff1673ffffffffffffffffffffffffffffffffffffffff16815260200190815260200160002060006101000a81548160ff0219169083151502179055508173ffffffffffffffffffffffffffffffffffffffff168373ffffffffffffffffffffffffffffffffffffffff167f17307eab39ab6107e8899845ad3d59bd9653f200f220920489ca2b5937696c318360405161130d9190611e8b565b60405180910390a3505050565b611322610ed3565b73ffffffffffffffffffffffffffffffffffffffff166113406109a8565b73ffffffffffffffffffffffffffffffffffffffff161461139f57611363610ed3565b6040517f118cdaa70000000000000000000000000000000000000000000000000000000081526004016113969190611ffc565b60405180910390fd5b565b6000600660009054906101000a900473ffffffffffffffffffffffffffffffffffffffff16905081600660006101000a81548173ffffffffffffffffffffffffffffffffffffffff021916908373ffffffffffffffffffffffffffffffffffffffff1602179055508173ffffffffffffffffffffffffffffffffffffffff168173ffffffffffffffffffffffffffffffffffffffff167f8be0079c531659141344cd1fd0a4f28419497f9722a3daafe3b4186f6b6457e060405160405180910390a35050565b60008373ffffffffffffffffffffffffffffffffffffffff163b1115611618578273ffffffffffffffffffffffffffffffffffffffff1663150b7a026114ab610ed3565b8685856040518563ffffffff1660e01b81526004016114cd94939291906129e1565b6020604051808303816000875af192505050801561150957506040513d601f19601f820116820180604052508101906115069190612a42565b60015b61158d573d8060008114611539576040519150601f19603f3d011682016040523d82523d6000602084013e61153e565b606091505b50600081510361158557836040517f64a0ae9200000000000000000000000000000000000000000000000000000000815260040161157c9190611ffc565b60405180910390fd5b805181602001fd5b63150b7a0260e01b7bffffffffffffffffffffffffffffffffffffffffffffffffffffffff1916817bffffffffffffffffffffffffffffffffffffffffffffffffffffffff19161461161657836040517f64a0ae9200000000000000000000000000000000000000000000000000000000815260040161160d9190611ffc565b60405180910390fd5b505b50505050565b60606009805461162d9061246d565b80601f01602080910402602001604051908101604052809291908181526020018280546116599061246d565b80156116a65780601f1061167b576101008083540402835291602001916116a6565b820191906000526020600020905b81548152906001019060200180831161168957829003601f168201915b5050505050905090565b6060600060016116bf84611aca565b01905060008167ffffffffffffffff8111156116de576116dd612250565b5b6040519080825280601f01601f1916602001820160405280156117105781602001600182028036833780820191505090505b509050600082602001820190505b600115611773578080600190039150507f3031323334353637383961626364656600000000000000000000000000000000600a86061a8153600a858161176757611766612a6f565b5b0494506000850361171e575b819350505050919050565b60007f01ffc9a7000000000000000000000000000000000000000000000000000000007bffffffffffffffffffffffffffffffffffffffffffffffffffffffff1916827bffffffffffffffffffffffffffffffffffffffffffffffffffffffff1916149050919050565b60006002600083815260200190815260200160002060009054906101000a900473ffffffffffffffffffffffffffffffffffffffff169050919050565b808061185e5750600073ffffffffffffffffffffffffffffffffffffffff168273ffffffffffffffffffffffffffffffffffffffff1614155b1561199257600061186e84610e0e565b9050600073ffffffffffffffffffffffffffffffffffffffff168373ffffffffffffffffffffffffffffffffffffffff16141580156118d957508273ffffffffffffffffffffffffffffffffffffffff168173ffffffffffffffffffffffffffffffffffffffff1614155b80156118ec57506118ea8184610c12565b155b1561192e57826040517fa9fbf51f0000000000000000000000000000000000000000000000000000000081526004016119259190611ffc565b60405180910390fd5b811561199057838573ffffffffffffffffffffffffffffffffffffffff168273ffffffffffffffffffffffffffffffffffffffff167f8c5be1e5ebec7d5bd14f71427d1e84f3dd0314c0f7b2291e5b200ac8c7c3b92560405160405180910390a45b505b836004600085815260200190815260200160002060006101000a81548173ffffffffffffffffffffffffffffffffffffffff021916908373ffffffffffffffffffffffffffffffffffffffff16021790555050505050565b6119f5838383611c1d565b611aa957600073ffffffffffffffffffffffffffffffffffffffff168373ffffffffffffffffffffffffffffffffffffffff1603611a6a57806040517f7e273289000000000000000000000000000000000000000000000000000000008152600401611a619190612112565b60405180910390fd5b81816040517f177e802f000000000000000000000000000000000000000000000000000000008152600401611aa0929190612a9e565b60405180910390fd5b505050565b611ab88383611cde565b611ac56000848484611467565b505050565b600080600090507a184f03e93ff9f4daa797ed6e38ed64bf6a1f0100000000000000008310611b28577a184f03e93ff9f4daa797ed6e38ed64bf6a1f0100000000000000008381611b1e57611b1d612a6f565b5b0492506040810190505b6d04ee2d6d415b85acef81000000008310611b65576d04ee2d6d415b85acef81000000008381611b5b57611b5a612a6f565b5b0492506020810190505b662386f26fc100008310611b9457662386f26fc100008381611b8a57611b89612a6f565b5b0492506010810190505b6305f5e1008310611bbd576305f5e1008381611bb357611bb2612a6f565b5b0492506008810190505b6127108310611be2576127108381611bd857611bd7612a6f565b5b0492506004810190505b60648310611c055760648381611bfb57611bfa612a6f565b5b0492506002810190505b600a8310611c14576001810190505b80915050919050565b60008073ffffffffffffffffffffffffffffffffffffffff168373ffffffffffffffffffffffffffffffffffffffff1614158015611cd557508273ffffffffffffffffffffffffffffffffffffffff168473ffffffffffffffffffffffffffffffffffffffff161480611c965750611c958484610c12565b5b80611cd457508273ffffffffffffffffffffffffffffffffffffffff16611cbc83610e96565b73ffffffffffffffffffffffffffffffffffffffff16145b5b90509392505050565b600073ffffffffffffffffffffffffffffffffffffffff168273ffffffffffffffffffffffffffffffffffffffff1603611d505760006040517f64a0ae92000000000000000000000000000000000000000000000000000000008152600401611d479190611ffc565b60405180910390fd5b6000611d5e83836000610eed565b9050600073ffffffffffffffffffffffffffffffffffffffff168173ffffffffffffffffffffffffffffffffffffffff1614611dd25760006040517f73c6ac6e000000000000000000000000000000000000000000000000000000008152600401611dc99190611ffc565b60405180910390fd5b505050565b6000604051905090565b600080fd5b600080fd5b60007fffffffff0000000000000000000000000000000000000000000000000000000082169050919050565b611e2081611deb565b8114611e2b57600080fd5b50565b600081359050611e3d81611e17565b92915050565b600060208284031215611e5957611e58611de1565b5b6000611e6784828501611e2e565b91505092915050565b60008115159050919050565b611e8581611e70565b82525050565b6000602082019050611ea06000830184611e7c565b92915050565b600081519050919050565b600082825260208201905092915050565b60005b83811015611ee0578082015181840152602081019050611ec5565b60008484015250505050565b6000601f19601f8301169050919050565b6000611f0882611ea6565b611f128185611eb1565b9350611f22818560208601611ec2565b611f2b81611eec565b840191505092915050565b60006020820190508181036000830152611f508184611efd565b905092915050565b6000819050919050565b611f6b81611f58565b8114611f7657600080fd5b50565b600081359050611f8881611f62565b92915050565b600060208284031215611fa457611fa3611de1565b5b6000611fb284828501611f79565b91505092915050565b600073ffffffffffffffffffffffffffffffffffffffff82169050919050565b6000611fe682611fbb565b9050919050565b611ff681611fdb565b82525050565b60006020820190506120116000830184611fed565b92915050565b61202081611fdb565b811461202b57600080fd5b50565b60008135905061203d81612017565b92915050565b6000806040838503121561205a57612059611de1565b5b60006120688582860161202e565b925050602061207985828601611f79565b9150509250929050565b60008060006060848603121561209c5761209b611de1565b5b60006120aa8682870161202e565b93505060206120bb8682870161202e565b92505060406120cc86828701611f79565b9150509250925092565b6000602082840312156120ec576120eb611de1565b5b60006120fa8482850161202e565b91505092915050565b61210c81611f58565b82525050565b60006020820190506121276000830184612103565b92915050565b600080fd5b600080fd5b600080fd5b60008083601f8401126121525761215161212d565b5b8235905067ffffffffffffffff81111561216f5761216e612132565b5b60208301915083600182028301111561218b5761218a612137565b5b9250929050565b600080602083850312156121a9576121a8611de1565b5b600083013567ffffffffffffffff8111156121c7576121c6611de6565b5b6121d38582860161213c565b92509250509250929050565b6121e881611e70565b81146121f357600080fd5b50565b600081359050612205816121df565b92915050565b6000806040838503121561222257612221611de1565b5b60006122308582860161202e565b9250506020612241858286016121f6565b9150509250929050565b600080fd5b7f4e487b7100000000000000000000000000000000000000000000000000000000600052604160045260246000fd5b61228882611eec565b810181811067ffffffffffffffff821117156122a7576122a6612250565b5b80604052505050565b60006122ba611dd7565b90506122c6828261227f565b919050565b600067ffffffffffffffff8211156122e6576122e5612250565b5b6122ef82611eec565b9050602081019050919050565b82818337600083830152505050565b600061231e612319846122cb565b6122b0565b90508281526020810184848401111561233a5761233961224b565b5b6123458482856122fc565b509392505050565b600082601f8301126123625761236161212d565b5b813561237284826020860161230b565b91505092915050565b6000806000806080858703121561239557612394611de1565b5b60006123a38782880161202e565b94505060206123b48782880161202e565b93505060406123c587828801611f79565b925050606085013567ffffffffffffffff8111156123e6576123e5611de6565b5b6123f28782880161234d565b91505092959194509250565b6000806040838503121561241557612414611de1565b5b60006124238582860161202e565b92505060206124348582860161202e565b9150509250929050565b7f4e487b7100000000000000000000000000000000000000000000000000000000600052602260045260246000fd5b6000600282049050600182168061248557607f821691505b6020821081036124985761249761243e565b5b50919050565b60006060820190506124b36000830186611fed565b6124c06020830185612103565b6124cd6040830184611fed565b949350505050565b7f4f6e6c7920746865206f776e6572206f7220617574686f72697a656420636f6e60008201527f74726163742063616e206275726e2e0000000000000000000000000000000000602082015250565b6000612531602f83611eb1565b915061253c826124d5565b604082019050919050565b6000602082019050818103600083015261256081612524565b9050919050565b7f4f6e6c7920746865206f776e6572206f7220617574686f72697a656420636f6e60008201527f74726163742063616e206d696e742e0000000000000000000000000000000000602082015250565b60006125c3602f83611eb1565b91506125ce82612567565b604082019050919050565b600060208201905081810360008301526125f2816125b6565b9050919050565b7f4e487b7100000000000000000000000000000000000000000000000000000000600052601160045260246000fd5b600061263382611f58565b91507fffffffffffffffffffffffffffffffffffffffffffffffffffffffffffffffff8203612665576126646125f9565b5b600182019050919050565b600082905092915050565b60008190508160005260206000209050919050565b60006020601f8301049050919050565b600082821b905092915050565b6000600883026126dd7fffffffffffffffffffffffffffffffffffffffffffffffffffffffffffffffff826126a0565b6126e786836126a0565b95508019841693508086168417925050509392505050565b6000819050919050565b600061272461271f61271a84611f58565b6126ff565b611f58565b9050919050565b6000819050919050565b61273e83612709565b61275261274a8261272b565b8484546126ad565b825550505050565b600090565b61276761275a565b612772818484612735565b505050565b5b818110156127965761278b60008261275f565b600181019050612778565b5050565b601f8211156127db576127ac8161267b565b6127b584612690565b810160208510156127c4578190505b6127d86127d085612690565b830182612777565b50505b505050565b600082821c905092915050565b60006127fe600019846008026127e0565b1980831691505092915050565b600061281783836127ed565b9150826002028217905092915050565b6128318383612670565b67ffffffffffffffff81111561284a57612849612250565b5b612854825461246d565b61285f82828561279a565b6000601f83116001811461288e576000841561287c578287013590505b612886858261280b565b8655506128ee565b601f19841661289c8661267b565b60005b828110156128c45784890135825560018201915060208501945060208101905061289f565b868310156128e157848901356128dd601f8916826127ed565b8355505b6001600288020188555050505b50505050505050565b600081905092915050565b600061290d82611ea6565b61291781856128f7565b9350612927818560208601611ec2565b80840191505092915050565b7f2e6a736f6e000000000000000000000000000000000000000000000000000000815250565b60006129658285612902565b91506129718284612902565b915061297c82612933565b6005820191508190509392505050565b600081519050919050565b600082825260208201905092915050565b60006129b38261298c565b6129bd8185612997565b93506129cd818560208601611ec2565b6129d681611eec565b840191505092915050565b60006080820190506129f66000830187611fed565b612a036020830186611fed565b612a106040830185612103565b8181036060830152612a2281846129a8565b905095945050505050565b600081519050612a3c81611e17565b92915050565b600060208284031215612a5857612a57611de1565b5b6000612a6684828501612a2d565b91505092915050565b7f4e487b7100000000000000000000000000000000000000000000000000000000600052601260045260246000fd5b6000604082019050612ab36000830185611fed565b612ac06020830184612103565b939250505056fea26469706673582212206169234c2ca899e40f0367917ecc7f9d709d7b4177ee6bfc6159fad61ff07ea264736f6c63430008180033",
    "linkReferences": {},
    "deployedLinkReferences": {}
}